{
  "_format": "hh-sol-artifact-1",
  "contractName": "StakingVault",
  "sourceName": "contracts/StakingVault.sol",
  "abi": [
    {
      "inputs": [
        {
          "internalType": "address",
          "name": "_gmij",
          "type": "address"
        }
      ],
      "stateMutability": "nonpayable",
      "type": "constructor"
    },
    {
      "inputs": [
        {
          "internalType": "address",
          "name": "owner",
          "type": "address"
        }
      ],
      "name": "OwnableInvalidOwner",
      "type": "error"
    },
    {
      "inputs": [
        {
          "internalType": "address",
          "name": "account",
          "type": "address"
        }
      ],
      "name": "OwnableUnauthorizedAccount",
      "type": "error"
    },
    {
      "inputs": [],
      "name": "ReentrancyGuardReentrantCall",
      "type": "error"
    },
    {
      "inputs": [
        {
          "internalType": "address",
          "name": "token",
          "type": "address"
        }
      ],
      "name": "SafeERC20FailedOperation",
      "type": "error"
    },
    {
      "anonymous": false,
      "inputs": [
        {
          "indexed": true,
          "internalType": "address",
          "name": "previousOwner",
          "type": "address"
        },
        {
          "indexed": true,
          "internalType": "address",
          "name": "newOwner",
          "type": "address"
        }
      ],
      "name": "OwnershipTransferred",
      "type": "event"
    },
    {
      "anonymous": false,
      "inputs": [
        {
          "indexed": false,
          "internalType": "uint256",
          "name": "reward",
          "type": "uint256"
        }
      ],
      "name": "RewardAdded",
      "type": "event"
    },
    {
      "anonymous": false,
      "inputs": [
        {
          "indexed": true,
          "internalType": "address",
          "name": "user",
          "type": "address"
        },
        {
          "indexed": false,
          "internalType": "uint256",
          "name": "reward",
          "type": "uint256"
        }
      ],
      "name": "RewardPaid",
      "type": "event"
    },
    {
      "anonymous": false,
      "inputs": [
        {
          "indexed": false,
          "internalType": "uint256",
          "name": "newDuration",
          "type": "uint256"
        }
      ],
      "name": "RewardsDurationUpdated",
      "type": "event"
    },
    {
      "anonymous": false,
      "inputs": [
        {
          "indexed": true,
          "internalType": "address",
          "name": "user",
          "type": "address"
        },
        {
          "indexed": false,
          "internalType": "uint256",
          "name": "amount",
          "type": "uint256"
        }
      ],
      "name": "Staked",
      "type": "event"
    },
    {
      "anonymous": false,
      "inputs": [
        {
          "indexed": true,
          "internalType": "address",
          "name": "user",
          "type": "address"
        },
        {
          "indexed": false,
          "internalType": "uint256",
          "name": "amount",
          "type": "uint256"
        }
      ],
      "name": "Withdrawn",
      "type": "event"
    },
    {
      "inputs": [
        {
          "internalType": "address",
          "name": "account",
          "type": "address"
        }
      ],
      "name": "balanceOf",
      "outputs": [
        {
          "internalType": "uint256",
          "name": "",
          "type": "uint256"
        }
      ],
      "stateMutability": "view",
      "type": "function"
    },
    {
      "inputs": [
        {
          "internalType": "address",
          "name": "",
          "type": "address"
        }
      ],
      "name": "balances",
      "outputs": [
        {
          "internalType": "uint256",
          "name": "",
          "type": "uint256"
        }
      ],
      "stateMutability": "view",
      "type": "function"
    },
    {
      "inputs": [
        {
          "internalType": "address",
          "name": "account",
          "type": "address"
        }
      ],
      "name": "earned",
      "outputs": [
        {
          "internalType": "uint256",
          "name": "",
          "type": "uint256"
        }
      ],
      "stateMutability": "view",
      "type": "function"
    },
    {
      "inputs": [],
      "name": "exit",
      "outputs": [],
      "stateMutability": "nonpayable",
      "type": "function"
    },
    {
      "inputs": [],
      "name": "getReward",
      "outputs": [],
      "stateMutability": "nonpayable",
      "type": "function"
    },
    {
      "inputs": [
        {
          "internalType": "address",
          "name": "",
          "type": "address"
        }
      ],
      "name": "lastStakeTime",
      "outputs": [
        {
          "internalType": "uint256",
          "name": "",
          "type": "uint256"
        }
      ],
      "stateMutability": "view",
      "type": "function"
    },
    {
      "inputs": [],
      "name": "lastTimeRewardApplicable",
      "outputs": [
        {
          "internalType": "uint256",
          "name": "",
          "type": "uint256"
        }
      ],
      "stateMutability": "view",
      "type": "function"
    },
    {
      "inputs": [],
      "name": "lastUpdateTime",
      "outputs": [
        {
          "internalType": "uint256",
          "name": "",
          "type": "uint256"
        }
      ],
      "stateMutability": "view",
      "type": "function"
    },
    {
      "inputs": [
        {
          "internalType": "uint256",
          "name": "reward",
          "type": "uint256"
        }
      ],
      "name": "notifyRewardAmount",
      "outputs": [],
      "stateMutability": "nonpayable",
      "type": "function"
    },
    {
      "inputs": [],
      "name": "owner",
      "outputs": [
        {
          "internalType": "address",
          "name": "",
          "type": "address"
        }
      ],
      "stateMutability": "view",
      "type": "function"
    },
    {
      "inputs": [],
      "name": "periodFinish",
      "outputs": [
        {
          "internalType": "uint256",
          "name": "",
          "type": "uint256"
        }
      ],
      "stateMutability": "view",
      "type": "function"
    },
    {
      "inputs": [],
      "name": "renounceOwnership",
      "outputs": [],
      "stateMutability": "nonpayable",
      "type": "function"
    },
    {
      "inputs": [],
      "name": "rewardPerToken",
      "outputs": [
        {
          "internalType": "uint256",
          "name": "",
          "type": "uint256"
        }
      ],
      "stateMutability": "view",
      "type": "function"
    },
    {
      "inputs": [],
      "name": "rewardPerTokenStored",
      "outputs": [
        {
          "internalType": "uint256",
          "name": "",
          "type": "uint256"
        }
      ],
      "stateMutability": "view",
      "type": "function"
    },
    {
      "inputs": [],
      "name": "rewardRate",
      "outputs": [
        {
          "internalType": "uint256",
          "name": "",
          "type": "uint256"
        }
      ],
      "stateMutability": "view",
      "type": "function"
    },
    {
      "inputs": [
        {
          "internalType": "address",
          "name": "",
          "type": "address"
        }
      ],
      "name": "rewards",
      "outputs": [
        {
          "internalType": "uint256",
          "name": "",
          "type": "uint256"
        }
      ],
      "stateMutability": "view",
      "type": "function"
    },
    {
      "inputs": [],
      "name": "rewardsDuration",
      "outputs": [
        {
          "internalType": "uint256",
          "name": "",
          "type": "uint256"
        }
      ],
      "stateMutability": "view",
      "type": "function"
    },
    {
      "inputs": [],
      "name": "rewardsToken",
      "outputs": [
        {
          "internalType": "contract IERC20",
          "name": "",
          "type": "address"
        }
      ],
      "stateMutability": "view",
      "type": "function"
    },
    {
      "inputs": [
        {
          "internalType": "uint256",
          "name": "_rewardsDuration",
          "type": "uint256"
        }
      ],
      "name": "setRewardsDuration",
      "outputs": [],
      "stateMutability": "nonpayable",
      "type": "function"
    },
    {
      "inputs": [
        {
          "internalType": "uint256",
          "name": "amount",
          "type": "uint256"
        }
      ],
      "name": "stake",
      "outputs": [],
      "stateMutability": "nonpayable",
      "type": "function"
    },
    {
      "inputs": [],
      "name": "stakingToken",
      "outputs": [
        {
          "internalType": "contract IERC20",
          "name": "",
          "type": "address"
        }
      ],
      "stateMutability": "view",
      "type": "function"
    },
    {
      "inputs": [],
      "name": "totalSupply",
      "outputs": [
        {
          "internalType": "uint256",
          "name": "",
          "type": "uint256"
        }
      ],
      "stateMutability": "view",
      "type": "function"
    },
    {
      "inputs": [
        {
          "internalType": "address",
          "name": "newOwner",
          "type": "address"
        }
      ],
      "name": "transferOwnership",
      "outputs": [],
      "stateMutability": "nonpayable",
      "type": "function"
    },
    {
      "inputs": [
        {
          "internalType": "address",
          "name": "",
          "type": "address"
        }
      ],
      "name": "userRewardPerTokenPaid",
      "outputs": [
        {
          "internalType": "uint256",
          "name": "",
          "type": "uint256"
        }
      ],
      "stateMutability": "view",
      "type": "function"
    },
    {
      "inputs": [
        {
          "internalType": "uint256",
          "name": "amount",
          "type": "uint256"
        }
      ],
      "name": "withdraw",
      "outputs": [],
      "stateMutability": "nonpayable",
      "type": "function"
    }
  ],
  "bytecode": "0x60c060405262093a8060045534801561001757600080fd5b50604051610e78380380610e78833981016040819052610036916100d3565b6001600055338061006157604051631e4fbdf760e01b81526000600482015260240160405180910390fd5b61006a81610081565b506001600160a01b0316608081905260a052610103565b600180546001600160a01b038381166001600160a01b0319831681179093556040519116919082907f8be0079c531659141344cd1fd0a4f28419497f9722a3daafe3b4186f6b6457e090600090a35050565b6000602082840312156100e557600080fd5b81516001600160a01b03811681146100fc57600080fd5b9392505050565b60805160a051610d3b61013d6000396000818161032c01526107510152600081816102540152818161054701526108e60152610d3b6000f3fe608060405234801561001057600080fd5b50600436106101725760003560e01c80637bb1ca19116100de578063cc1a378f11610097578063df136d6511610071578063df136d651461034e578063e9fad8ee14610357578063ebe2b12b1461035f578063f2fde38b1461036857600080fd5b8063cc1a378f1461030c578063cd3daf9d1461031f578063d1af0c7d1461032757600080fd5b80637bb1ca191461029757806380faa57d146102b75780638b876347146102bf5780638da5cb5b146102df578063a694fc3a146102f0578063c8f33c911461030357600080fd5b80633c6b16ab116101305780633c6b16ab146102035780633d18b9121461021657806370a082311461021e578063715018a61461024757806372f702f31461024f5780637b0a47ee1461028e57600080fd5b80628cc262146101775780630700037d1461019d57806318160ddd146101bd57806327e235e3146101c55780632e1a7d4d146101e5578063386a9525146101fa575b600080fd5b61018a610185366004610c47565b61037b565b6040519081526020015b60405180910390f35b61018a6101ab366004610c47565b60086020526000908152604090205481565b600b5461018a565b61018a6101d3366004610c47565b60096020526000908152604090205481565b6101f86101f3366004610c77565b6103f8565b005b61018a60045481565b6101f8610211366004610c77565b6105b2565b6101f86106c2565b61018a61022c366004610c47565b6001600160a01b031660009081526009602052604090205490565b6101f86107c4565b6102767f000000000000000000000000000000000000000000000000000000000000000081565b6040516001600160a01b039091168152602001610194565b61018a60035481565b61018a6102a5366004610c47565b600a6020526000908152604090205481565b61018a6107d6565b61018a6102cd366004610c47565b60076020526000908152604090205481565b6001546001600160a01b0316610276565b6101f86102fe366004610c77565b6107ef565b61018a60055481565b6101f861031a366004610c77565b610948565b61018a6109cd565b6102767f000000000000000000000000000000000000000000000000000000000000000081565b61018a60065481565b6101f8610a2e565b61018a60025481565b6101f8610376366004610c47565b610a4f565b6001600160a01b0381166000908152600860209081526040808320546007909252822054670de0b6b3a7640000906103b16109cd565b6103bb9190610ca6565b6001600160a01b0385166000908152600960205260409020546103de9190610cb9565b6103e89190610cd0565b6103f29190610cf2565b92915050565b610400610a8a565b336104096109cd565b6006556104146107d6565b6005556001600160a01b0381161561045b5761042f8161037b565b6001600160a01b0382166000908152600860209081526040808320939093556006546007909152919020555b600082116104a45760405162461bcd60e51b8152602060048201526011602482015270063616e6e6f74207769746864726177203607c1b60448201526064015b60405180910390fd5b336000908152600a60205260409020546104c19062093a80610cf2565b4210156104fe5760405162461bcd60e51b815260206004820152600b60248201526a18dbdbdb191bdddb880dd960aa1b604482015260640161049b565b81600b60008282546105109190610ca6565b90915550503360009081526009602052604081208054849290610534908490610ca6565b9091555061056e90506001600160a01b037f0000000000000000000000000000000000000000000000000000000000000000163384610ab4565b60405182815233907f7084f5476618d8e60b11ef0d7d3f06914655adb8793e28ff7f018d4c76d505d5906020015b60405180910390a2506105af6001600055565b50565b60006105bc6109cd565b6006556105c76107d6565b6005556001600160a01b0381161561060e576105e28161037b565b6001600160a01b0382166000908152600860209081526040808320939093556006546007909152919020555b610616610b18565b60025442106106345760045461062c9083610cd0565b600355610676565b6000426002546106449190610ca6565b90506000600354826106569190610cb9565b6004549091506106668286610cf2565b6106709190610cd0565b60035550505b42600581905560045461068891610cf2565b6002556040518281527fde88a922e0d3b88b24e9623efeb464919c6bf9f66857a65e2bfcf2ce87a9433d9060200160405180910390a15050565b6106ca610a8a565b336106d36109cd565b6006556106de6107d6565b6005556001600160a01b03811615610725576106f98161037b565b6001600160a01b0382166000908152600860209081526040808320939093556006546007909152919020555b3360009081526008602052604090205480156107b65733600081815260086020526040812055610780907f00000000000000000000000000000000000000000000000000000000000000006001600160a01b03169083610ab4565b60405181815233907fe2403640ba68fed3a2f88b7557551d1993f84b99bb10ff833f0cf8db0c5e04869060200160405180910390a25b50506107c26001600055565b565b6107cc610b18565b6107c26000610b45565b600060025442106107e8575060025490565b425b905090565b6107f7610a8a565b336108006109cd565b60065561080b6107d6565b6005556001600160a01b03811615610852576108268161037b565b6001600160a01b0382166000908152600860209081526040808320939093556006546007909152919020555b600082116108935760405162461bcd60e51b815260206004820152600e60248201526d063616e6e6f74207374616b6520360941b604482015260640161049b565b81600b60008282546108a59190610cf2565b909155505033600090815260096020526040812080548492906108c9908490610cf2565b9091555050336000818152600a60205260409020429055610916907f00000000000000000000000000000000000000000000000000000000000000006001600160a01b0316903085610b97565b60405182815233907f9e71bc8eea02a63969f509818f2dafb9254532904319f9dbda79b67bd34a5f3d9060200161059c565b610950610b18565b60025442116109925760405162461bcd60e51b815260206004820152600e60248201526d1bdb99dbda5b99c81c195c9a5bd960921b604482015260640161049b565b60048190556040518181527ffb46ca5a5e06d4540d6387b930a7c978bce0db5f449ec6b3f5d07c6e1d44f2d39060200160405180910390a150565b6000600b546000036109e0575060065490565b600b546003546005546109f16107d6565b6109fb9190610ca6565b610a059190610cb9565b610a1790670de0b6b3a7640000610cb9565b610a219190610cd0565b6006546107ea9190610cf2565b33600090815260096020526040902054610a47906103f8565b6107c26106c2565b610a57610b18565b6001600160a01b038116610a8157604051631e4fbdf760e01b81526000600482015260240161049b565b6105af81610b45565b600260005403610aad57604051633ee5aeb560e01b815260040160405180910390fd5b6002600055565b6040516001600160a01b03838116602483015260448201839052610b1391859182169063a9059cbb906064015b604051602081830303815290604052915060e01b6020820180516001600160e01b038381831617835250505050610bd6565b505050565b6001546001600160a01b031633146107c25760405163118cdaa760e01b815233600482015260240161049b565b600180546001600160a01b038381166001600160a01b0319831681179093556040519116919082907f8be0079c531659141344cd1fd0a4f28419497f9722a3daafe3b4186f6b6457e090600090a35050565b6040516001600160a01b038481166024830152838116604483015260648201839052610bd09186918216906323b872dd90608401610ae1565b50505050565b600080602060008451602086016000885af180610bf9576040513d6000823e3d81fd5b50506000513d91508115610c11578060011415610c1e565b6001600160a01b0384163b155b15610bd057604051635274afe760e01b81526001600160a01b038516600482015260240161049b565b600060208284031215610c5957600080fd5b81356001600160a01b0381168114610c7057600080fd5b9392505050565b600060208284031215610c8957600080fd5b5035919050565b634e487b7160e01b600052601160045260246000fd5b818103818111156103f2576103f2610c90565b80820281158282048414176103f2576103f2610c90565b600082610ced57634e487b7160e01b600052601260045260246000fd5b500490565b808201808211156103f2576103f2610c9056fea2646970667358221220ecc9bd136928e6c38a6b79285eaa6f617a7a2d4995b904d1c2ae11dd4ff0763a64736f6c63430008180033",
  "linkReferences": {},
  "deployedLinkReferences": {}
}